{
  "contractName": "Project",
  "abi": [
    {
      "inputs": [
        {
          "internalType": "address",
          "name": "projectCreator",
          "type": "address"
        },
        {
          "internalType": "string",
          "name": "projectTitle",
          "type": "string"
        },
        {
          "internalType": "string",
          "name": "projectDescription",
          "type": "string"
        },
        {
          "internalType": "uint256",
          "name": "timeOfCompletion",
          "type": "uint256"
        },
        {
          "internalType": "uint256",
          "name": "projectGoal",
          "type": "uint256"
        }
      ],
      "stateMutability": "nonpayable",
      "type": "constructor"
    },
    {
      "anonymous": false,
      "inputs": [
        {
          "indexed": false,
          "internalType": "address",
          "name": "recipient",
          "type": "address"
        },
        {
          "indexed": false,
          "internalType": "uint256",
          "name": "amount",
          "type": "uint256"
        }
      ],
      "name": "CreatorFunded",
      "type": "event"
    },
    {
      "anonymous": false,
      "inputs": [
        {
          "indexed": false,
          "internalType": "address",
          "name": "contributor",
          "type": "address"
        },
        {
          "indexed": false,
          "internalType": "uint256",
          "name": "amount",
          "type": "uint256"
        },
        {
          "indexed": false,
          "internalType": "uint256",
          "name": "currentTotal",
          "type": "uint256"
        }
      ],
      "name": "FundingReceived",
      "type": "event"
    },
    {
      "inputs": [
        {
          "internalType": "uint256",
          "name": "",
          "type": "uint256"
        }
      ],
      "name": "acceptedRequests",
      "outputs": [
        {
          "internalType": "address",
          "name": "",
          "type": "address"
        }
      ],
      "stateMutability": "view",
      "type": "function"
    },
    {
      "inputs": [
        {
          "internalType": "uint256",
          "name": "",
          "type": "uint256"
        }
      ],
      "name": "admins",
      "outputs": [
        {
          "internalType": "address",
          "name": "",
          "type": "address"
        }
      ],
      "stateMutability": "view",
      "type": "function"
    },
    {
      "inputs": [],
      "name": "completedAt",
      "outputs": [
        {
          "internalType": "uint256",
          "name": "",
          "type": "uint256"
        }
      ],
      "stateMutability": "view",
      "type": "function"
    },
    {
      "inputs": [
        {
          "internalType": "address",
          "name": "",
          "type": "address"
        }
      ],
      "name": "contributions",
      "outputs": [
        {
          "internalType": "uint256",
          "name": "",
          "type": "uint256"
        }
      ],
      "stateMutability": "view",
      "type": "function"
    },
    {
      "inputs": [],
      "name": "creator",
      "outputs": [
        {
          "internalType": "address payable",
          "name": "",
          "type": "address"
        }
      ],
      "stateMutability": "view",
      "type": "function"
    },
    {
      "inputs": [],
      "name": "currentBalance",
      "outputs": [
        {
          "internalType": "uint256",
          "name": "",
          "type": "uint256"
        }
      ],
      "stateMutability": "view",
      "type": "function"
    },
    {
      "inputs": [],
      "name": "description",
      "outputs": [
        {
          "internalType": "string",
          "name": "",
          "type": "string"
        }
      ],
      "stateMutability": "view",
      "type": "function"
    },
    {
      "inputs": [],
      "name": "goal",
      "outputs": [
        {
          "internalType": "uint256",
          "name": "",
          "type": "uint256"
        }
      ],
      "stateMutability": "view",
      "type": "function"
    },
    {
      "inputs": [],
      "name": "raisedBy",
      "outputs": [
        {
          "internalType": "uint256",
          "name": "",
          "type": "uint256"
        }
      ],
      "stateMutability": "view",
      "type": "function"
    },
    {
      "inputs": [],
      "name": "state",
      "outputs": [
        {
          "internalType": "enum Project.State",
          "name": "",
          "type": "uint8"
        }
      ],
      "stateMutability": "view",
      "type": "function"
    },
    {
      "inputs": [],
      "name": "title",
      "outputs": [
        {
          "internalType": "string",
          "name": "",
          "type": "string"
        }
      ],
      "stateMutability": "view",
      "type": "function"
    },
    {
      "inputs": [],
      "name": "contribute",
      "outputs": [],
      "stateMutability": "payable",
      "type": "function"
    },
    {
      "inputs": [],
      "name": "withdraw",
      "outputs": [
        {
          "internalType": "bool",
          "name": "",
          "type": "bool"
        }
      ],
      "stateMutability": "payable",
      "type": "function"
    },
    {
      "inputs": [],
      "name": "getRefund",
      "outputs": [
        {
          "internalType": "bool",
          "name": "",
          "type": "bool"
        }
      ],
      "stateMutability": "payable",
      "type": "function"
    },
    {
      "inputs": [],
      "name": "getDetails",
      "outputs": [
        {
          "internalType": "address payable",
          "name": "projectStarter",
          "type": "address"
        },
        {
          "internalType": "string",
          "name": "projectTitle",
          "type": "string"
        },
        {
          "internalType": "string",
          "name": "projectDesc",
          "type": "string"
        },
        {
          "internalType": "uint256",
          "name": "deadline",
          "type": "uint256"
        },
        {
          "internalType": "uint256",
          "name": "balance",
          "type": "uint256"
        },
        {
          "internalType": "uint256",
          "name": "projectGoal",
          "type": "uint256"
        },
        {
          "internalType": "enum Project.State",
          "name": "currentState",
          "type": "uint8"
        },
        {
          "internalType": "uint256",
          "name": "currentIndex",
          "type": "uint256"
        },
        {
          "internalType": "uint256",
          "name": "thresholdVal",
          "type": "uint256"
        }
      ],
      "stateMutability": "view",
      "type": "function"
    },
    {
      "inputs": [],
      "name": "approveWithdrawal",
      "outputs": [],
      "stateMutability": "nonpayable",
      "type": "function"
    },
    {
      "inputs": [],
      "name": "getAdmins",
      "outputs": [
        {
          "internalType": "address[5]",
          "name": "",
          "type": "address[5]"
        }
      ],
      "stateMutability": "view",
      "type": "function"
    },
    {
      "inputs": [],
      "name": "getAcceptedRequests",
      "outputs": [
        {
          "internalType": "address[]",
          "name": "",
          "type": "address[]"
        }
      ],
      "stateMutability": "view",
      "type": "function"
    }
  ],
  "bytecode": "0x60806040526000600760006101000a81548160ff0219169083600381111562000051577f4e487b7100000000000000000000000000000000000000000000000000000000600052602160045260246000fd5b02179055506000600f557fffffffffffffffffffffffffffffffffffffffffffffffffffffffffffffffff60105560016011553480156200009157600080fd5b50604051620027f7380380620027f78339818101604052810190620000b7919062000292565b846000806101000a81548173ffffffffffffffffffffffffffffffffffffffff021916908373ffffffffffffffffffffffffffffffffffffffff16021790555083600590805190602001906200010f92919062000142565b5082600690805190602001906200012892919062000142565b508160038190555080600181905550505050505062000528565b828054620001509062000419565b90600052602060002090601f016020900481019282620001745760008555620001c0565b82601f106200018f57805160ff1916838001178555620001c0565b82800160010185558215620001c0579182015b82811115620001bf578251825591602001919060010190620001a2565b5b509050620001cf9190620001d3565b5090565b5b80821115620001ee576000816000905550600101620001d4565b5090565b60006200020962000203846200036f565b62000346565b9050828152602081018484840111156200022257600080fd5b6200022f848285620003e3565b509392505050565b6000815190506200024881620004f4565b92915050565b600082601f8301126200026057600080fd5b815162000272848260208601620001f2565b91505092915050565b6000815190506200028c816200050e565b92915050565b600080600080600060a08688031215620002ab57600080fd5b6000620002bb8882890162000237565b955050602086015167ffffffffffffffff811115620002d957600080fd5b620002e7888289016200024e565b945050604086015167ffffffffffffffff8111156200030557600080fd5b62000313888289016200024e565b935050606062000326888289016200027b565b925050608062000339888289016200027b565b9150509295509295909350565b60006200035262000365565b90506200036082826200044f565b919050565b6000604051905090565b600067ffffffffffffffff8211156200038d576200038c620004b4565b5b6200039882620004e3565b9050602081019050919050565b6000620003b282620003b9565b9050919050565b600073ffffffffffffffffffffffffffffffffffffffff82169050919050565b6000819050919050565b60005b8381101562000403578082015181840152602081019050620003e6565b8381111562000413576000848401525b50505050565b600060028204905060018216806200043257607f821691505b6020821081141562000449576200044862000485565b5b50919050565b6200045a82620004e3565b810181811067ffffffffffffffff821117156200047c576200047b620004b4565b5b80604052505050565b7f4e487b7100000000000000000000000000000000000000000000000000000000600052602260045260246000fd5b7f4e487b7100000000000000000000000000000000000000000000000000000000600052604160045260246000fd5b6000601f19601f8301169050919050565b620004ff81620003a5565b81146200050b57600080fd5b50565b6200051981620003d9565b81146200052557600080fd5b50565b6122bf80620005386000396000f3fe6080604052600436106101095760003560e01c806344c8d3bc11610095578063b2d5ae4411610064578063b2d5ae4414610352578063c19d93fb14610370578063ce845d1d1461039b578063d7bb99ba146103c6578063fbbf93a0146103d057610109565b806344c8d3bc146102a65780634a79d50c146102d15780634f5fa3fb146102fc5780637284e4161461032757610109565b806336185c82116100dc57806336185c82146101b857806338771242146101f55780633ccfd60b14610220578063401938831461023e57806342e94c901461026957610109565b806302d05d3f1461010e57806314bfd6d0146101395780632c8b8bb31461017657806331ae450b1461018d575b600080fd5b34801561011a57600080fd5b50610123610403565b6040516101309190611b61565b60405180910390f35b34801561014557600080fd5b50610160600480360381019061015b91906118c7565b610427565b60405161016d9190611b46565b60405180910390f35b34801561018257600080fd5b5061018b61045d565b005b34801561019957600080fd5b506101a261060c565b6040516101af9190611c77565b60405180910390f35b3480156101c457600080fd5b506101df60048036038101906101da91906118c7565b61068d565b6040516101ec9190611b46565b60405180910390f35b34801561020157600080fd5b5061020a6106cc565b6040516102179190611dac565b60405180910390f35b6102286106d2565b6040516102359190611cb4565b60405180910390f35b34801561024a57600080fd5b50610253610a97565b6040516102609190611dac565b60405180910390f35b34801561027557600080fd5b50610290600480360381019061028b919061189e565b610a9d565b60405161029d9190611dac565b60405180910390f35b3480156102b257600080fd5b506102bb610ab5565b6040516102c89190611dac565b60405180910390f35b3480156102dd57600080fd5b506102e6610abb565b6040516102f39190611cea565b60405180910390f35b34801561030857600080fd5b50610311610b49565b60405161031e9190611c92565b60405180910390f35b34801561033357600080fd5b5061033c610bd7565b6040516103499190611cea565b60405180910390f35b61035a610c65565b6040516103679190611cb4565b60405180910390f35b34801561037c57600080fd5b50610385610ea9565b6040516103929190611ccf565b60405180910390f35b3480156103a757600080fd5b506103b0610ebc565b6040516103bd9190611dac565b60405180910390f35b6103ce610ec2565b005b3480156103dc57600080fd5b506103e56115fa565b6040516103fa99989796959493929190611b7c565b60405180910390f35b60008054906101000a900473ffffffffffffffffffffffffffffffffffffffff1681565b6009816005811061043757600080fd5b016000915054906101000a900473ffffffffffffffffffffffffffffffffffffffff1681565b6001806003811115610498577f4e487b7100000000000000000000000000000000000000000000000000000000600052602160045260246000fd5b600760009054906101000a900460ff1660038111156104e0577f4e487b7100000000000000000000000000000000000000000000000000000000600052602160045260246000fd5b146104ea57600080fd5b61056733600960058060200260405190810160405280929190826005801561055d576020028201915b8160009054906101000a900473ffffffffffffffffffffffffffffffffffffffff1673ffffffffffffffffffffffffffffffffffffffff1681526020019060010190808311610513575b505050505061177b565b6105a6576040517f08c379a000000000000000000000000000000000000000000000000000000000815260040161059d90611d8c565b60405180910390fd5b600e339080600181540180825580915050600190039060005260206000200160009091909190916101000a81548173ffffffffffffffffffffffffffffffffffffffff021916908373ffffffffffffffffffffffffffffffffffffffff16021790555050565b610614611852565b6009600580602002604051908101604052809291908260058015610683576020028201915b8160009054906101000a900473ffffffffffffffffffffffffffffffffffffffff1673ffffffffffffffffffffffffffffffffffffffff1681526020019060010190808311610639575b5050505050905090565b600e818154811061069d57600080fd5b906000526020600020016000915054906101000a900473ffffffffffffffffffffffffffffffffffffffff1681565b60025481565b6000600180600381111561070f577f4e487b7100000000000000000000000000000000000000000000000000000000600052602160045260246000fd5b600760009054906101000a900460ff166003811115610757577f4e487b7100000000000000000000000000000000000000000000000000000000600052602160045260246000fd5b1461076157600080fd5b60008054906101000a900473ffffffffffffffffffffffffffffffffffffffff1673ffffffffffffffffffffffffffffffffffffffff163373ffffffffffffffffffffffffffffffffffffffff16146107ef576040517f08c379a00000000000000000000000000000000000000000000000000000000081526004016107e690611d0c565b60405180910390fd5b610805600160115461182690919063ffffffff16565b6011819055506000601154905060008054906101000a900473ffffffffffffffffffffffffffffffffffffffff1673ffffffffffffffffffffffffffffffffffffffff163373ffffffffffffffffffffffffffffffffffffffff16146108a0576040517f08c379a000000000000000000000000000000000000000000000000000000000815260040161089790611d4c565b60405180910390fd5b6003600e8054905010156108e9576040517f08c379a00000000000000000000000000000000000000000000000000000000081526004016108e090611d6c565b60405180910390fd5b60006004549050600060048190555060008060009054906101000a900473ffffffffffffffffffffffffffffffffffffffff1673ffffffffffffffffffffffffffffffffffffffff168260405161093f90611b31565b60006040518083038185875af1925050503d806000811461097c576040519150601f19603f3d011682016040523d82523d6000602084013e610981565b606091505b505090508015610a40576003600760006101000a81548160ff021916908360038111156109d7577f4e487b7100000000000000000000000000000000000000000000000000000000600052602160045260246000fd5b02179055507f01343896cdf799de3d521882ab84cb837acf91f1e22fc1fc2209d446f5eac2db60008054906101000a900473ffffffffffffffffffffffffffffffffffffffff1683604051610a2d929190611c17565b60405180910390a1600194505050610a4e565b816004819055506000945050505b8060115414610a92576040517f08c379a0000000000000000000000000000000000000000000000000000000008152600401610a8990611d2c565b60405180910390fd5b505090565b60015481565b60086020528060005260406000206000915090505481565b60035481565b60058054610ac890611fc6565b80601f0160208091040260200160405190810160405280929190818152602001828054610af490611fc6565b8015610b415780601f10610b1657610100808354040283529160200191610b41565b820191906000526020600020905b815481529060010190602001808311610b2457829003601f168201915b505050505081565b6060600e805480602002602001604051908101604052809291908181526020018280548015610bcd57602002820191906000526020600020905b8160009054906101000a900473ffffffffffffffffffffffffffffffffffffffff1673ffffffffffffffffffffffffffffffffffffffff1681526020019060010190808311610b83575b5050505050905090565b60068054610be490611fc6565b80601f0160208091040260200160405190810160405280929190818152602001828054610c1090611fc6565b8015610c5d5780601f10610c3257610100808354040283529160200191610c5d565b820191906000526020600020905b815481529060010190602001808311610c4057829003601f168201915b505050505081565b60006002806003811115610ca2577f4e487b7100000000000000000000000000000000000000000000000000000000600052602160045260246000fd5b600760009054906101000a900460ff166003811115610cea577f4e487b7100000000000000000000000000000000000000000000000000000000600052602160045260246000fd5b14610cf457600080fd5b6000600860003373ffffffffffffffffffffffffffffffffffffffff1673ffffffffffffffffffffffffffffffffffffffff1681526020019081526020016000205411610d4057600080fd5b6000600860003373ffffffffffffffffffffffffffffffffffffffff1673ffffffffffffffffffffffffffffffffffffffff1681526020019081526020016000205490506000600860003373ffffffffffffffffffffffffffffffffffffffff1673ffffffffffffffffffffffffffffffffffffffff1681526020019081526020016000208190555060003373ffffffffffffffffffffffffffffffffffffffff1634604051610def90611b31565b60006040518083038185875af1925050503d8060008114610e2c576040519150601f19603f3d011682016040523d82523d6000602084013e610e31565b606091505b505090508015610e5b57610e508260045461183c90919063ffffffff16565b600481905550610ea0565b81600860003373ffffffffffffffffffffffffffffffffffffffff1673ffffffffffffffffffffffffffffffffffffffff168152602001908152602001600020819055505b80935050505090565b600760009054906101000a900460ff1681565b60045481565b6000806003811115610efd577f4e487b7100000000000000000000000000000000000000000000000000000000600052602160045260246000fd5b600760009054906101000a900460ff166003811115610f45577f4e487b7100000000000000000000000000000000000000000000000000000000600052602160045260246000fd5b14610f4f57600080fd5b610f65600160115461182690919063ffffffff16565b6011819055506000601154905060008054906101000a900473ffffffffffffffffffffffffffffffffffffffff1673ffffffffffffffffffffffffffffffffffffffff163373ffffffffffffffffffffffffffffffffffffffff161415610fcb57600080fd5b34600860003373ffffffffffffffffffffffffffffffffffffffff1673ffffffffffffffffffffffffffffffffffffffff168152602001908152602001600020546110169190611e54565b600860003373ffffffffffffffffffffffffffffffffffffffff1673ffffffffffffffffffffffffffffffffffffffff16815260200190815260200160002081905550346004600082825461106b9190611e54565b92505081905550600154600454106110da576001600760006101000a81548160ff021916908360038111156110c9577f4e487b7100000000000000000000000000000000000000000000000000000000600052602160045260246000fd5b02179055504260028190555061113e565b60035442111561113d576002600760006101000a81548160ff02191690836003811115611130577f4e487b7100000000000000000000000000000000000000000000000000000000600052602160045260246000fd5b0217905550426002819055505b5b6005600f541080156111d95750600073ffffffffffffffffffffffffffffffffffffffff166009600f546005811061119f577f4e487b7100000000000000000000000000000000000000000000000000000000600052603260045260246000fd5b0160009054906101000a900473ffffffffffffffffffffffffffffffffffffffff1673ffffffffffffffffffffffffffffffffffffffff16145b1561128b57336009600f546005811061121b577f4e487b7100000000000000000000000000000000000000000000000000000000600052603260045260246000fd5b0160006101000a81548173ffffffffffffffffffffffffffffffffffffffff021916908373ffffffffffffffffffffffffffffffffffffffff1602179055506001600f600082825461126d9190611e54565b9250508190555060105434101561128657346010819055505b611575565b6010543411156115745760005b60058110156114a0573460086000600984600581106112e0577f4e487b7100000000000000000000000000000000000000000000000000000000600052603260045260246000fd5b0160009054906101000a900473ffffffffffffffffffffffffffffffffffffffff1673ffffffffffffffffffffffffffffffffffffffff1673ffffffffffffffffffffffffffffffffffffffff16815260200190815260200160002054111580156113e657506010546008600060098460058110611387577f4e487b7100000000000000000000000000000000000000000000000000000000600052603260045260246000fd5b0160009054906101000a900473ffffffffffffffffffffffffffffffffffffffff1673ffffffffffffffffffffffffffffffffffffffff1673ffffffffffffffffffffffffffffffffffffffff16815260200190815260200160002054145b1561148d573360098260058110611426577f4e487b7100000000000000000000000000000000000000000000000000000000600052603260045260246000fd5b0160006101000a81548173ffffffffffffffffffffffffffffffffffffffff021916908373ffffffffffffffffffffffffffffffffffffffff1602179055507fffffffffffffffffffffffffffffffffffffffffffffffffffffffffffffffff6010819055505b808061149890611ff8565b915050611298565b5060005b600581101561157257600060086000600984600581106114ed577f4e487b7100000000000000000000000000000000000000000000000000000000600052603260045260246000fd5b0160009054906101000a900473ffffffffffffffffffffffffffffffffffffffff1673ffffffffffffffffffffffffffffffffffffffff1673ffffffffffffffffffffffffffffffffffffffff16815260200190815260200160002054905060105481101561155e57806010819055505b50808061156a90611ff8565b9150506114a4565b505b5b7f5cdc4ab8d637538ead6cc1904d4160343656c8c82bd266635cfd31ac008fffe033346004546040516115aa93929190611c40565b60405180910390a180601154146115f6576040517f08c379a00000000000000000000000000000000000000000000000000000000081526004016115ed90611d2c565b60405180910390fd5b5050565b600060608060008060008060008060008054906101000a900473ffffffffffffffffffffffffffffffffffffffff1698506005805461163890611fc6565b80601f016020809104026020016040519081016040528092919081815260200182805461166490611fc6565b80156116b15780601f10611686576101008083540402835291602001916116b1565b820191906000526020600020905b81548152906001019060200180831161169457829003601f168201915b50505050509750600680546116c590611fc6565b80601f01602080910402602001604051908101604052809291908181526020018280546116f190611fc6565b801561173e5780601f106117135761010080835404028352916020019161173e565b820191906000526020600020905b81548152906001019060200180831161172157829003601f168201915b50505050509650600354955060045494506001549350600760009054906101000a900460ff169250600f5491506010549050909192939495969798565b600080600090505b600581101561181a578281600581106117c5577f4e487b7100000000000000000000000000000000000000000000000000000000600052603260045260246000fd5b602002015173ffffffffffffffffffffffffffffffffffffffff168473ffffffffffffffffffffffffffffffffffffffff161415611807576001915050611820565b808061181290611ff8565b915050611783565b50600090505b92915050565b600081836118349190611e54565b905092915050565b6000818361184a9190611eaa565b905092915050565b6040518060a00160405280600590602082028036833780820191505090505090565b6000813590506118838161225b565b92915050565b60008135905061189881612272565b92915050565b6000602082840312156118b057600080fd5b60006118be84828501611874565b91505092915050565b6000602082840312156118d957600080fd5b60006118e784828501611889565b91505092915050565b60006118fc8383611926565b60208301905092915050565b61191181611f4b565b82525050565b61192081611ef0565b82525050565b61192f81611ede565b82525050565b61193e81611ede565b82525050565b61194d81611de1565b6119578184611e1c565b925061196282611dc7565b8060005b8381101561199357815161197a87826118f0565b965061198583611e02565b925050600181019050611966565b505050505050565b60006119a682611dec565b6119b08185611e27565b93506119bb83611dd1565b8060005b838110156119ec5781516119d388826118f0565b97506119de83611e0f565b9250506001810190506119bf565b5085935050505092915050565b611a0281611f02565b82525050565b611a1181611f5d565b82525050565b6000611a2282611df7565b611a2c8185611e43565b9350611a3c818560208601611f93565b611a45816120ce565b840191505092915050565b6000611a5d602f83611e43565b9150611a68826120df565b604082019050919050565b6000611a80601883611e43565b9150611a8b8261212e565b602082019050919050565b6000611aa3602383611e43565b9150611aae82612157565b604082019050919050565b6000611ac6600083611e38565b9150611ad1826121a6565b600082019050919050565b6000611ae9603d83611e43565b9150611af4826121a9565b604082019050919050565b6000611b0c602783611e43565b9150611b17826121f8565b604082019050919050565b611b2b81611f41565b82525050565b6000611b3c82611ab9565b9150819050919050565b6000602082019050611b5b6000830184611935565b92915050565b6000602082019050611b766000830184611917565b92915050565b600061012082019050611b92600083018c611917565b8181036020830152611ba4818b611a17565b90508181036040830152611bb8818a611a17565b9050611bc76060830189611b22565b611bd46080830188611b22565b611be160a0830187611b22565b611bee60c0830186611a08565b611bfb60e0830185611b22565b611c09610100830184611b22565b9a9950505050505050505050565b6000604082019050611c2c6000830185611908565b611c396020830184611b22565b9392505050565b6000606082019050611c556000830186611935565b611c626020830185611b22565b611c6f6040830184611b22565b949350505050565b600060a082019050611c8c6000830184611944565b92915050565b60006020820190508181036000830152611cac818461199b565b905092915050565b6000602082019050611cc960008301846119f9565b92915050565b6000602082019050611ce46000830184611a08565b92915050565b60006020820190508181036000830152611d048184611a17565b905092915050565b60006020820190508181036000830152611d2581611a50565b9050919050565b60006020820190508181036000830152611d4581611a73565b9050919050565b60006020820190508181036000830152611d6581611a96565b9050919050565b60006020820190508181036000830152611d8581611adc565b9050919050565b60006020820190508181036000830152611da581611aff565b9050919050565b6000602082019050611dc16000830184611b22565b92915050565b6000819050919050565b6000819050602082019050919050565b600060059050919050565b600081519050919050565b600081519050919050565b6000602082019050919050565b6000602082019050919050565b600081905092915050565b600082825260208201905092915050565b600081905092915050565b600082825260208201905092915050565b6000611e5f82611f41565b9150611e6a83611f41565b9250827fffffffffffffffffffffffffffffffffffffffffffffffffffffffffffffffff03821115611e9f57611e9e612041565b5b828201905092915050565b6000611eb582611f41565b9150611ec083611f41565b925082821015611ed357611ed2612041565b5b828203905092915050565b6000611ee982611f21565b9050919050565b6000611efb82611f21565b9050919050565b60008115159050919050565b6000819050611f1c82612247565b919050565b600073ffffffffffffffffffffffffffffffffffffffff82169050919050565b6000819050919050565b6000611f5682611f6f565b9050919050565b6000611f6882611f0e565b9050919050565b6000611f7a82611f81565b9050919050565b6000611f8c82611f21565b9050919050565b60005b83811015611fb1578082015181840152602081019050611f96565b83811115611fc0576000848401525b50505050565b60006002820490506001821680611fde57607f821691505b60208210811415611ff257611ff161209f565b5b50919050565b600061200382611f41565b91507fffffffffffffffffffffffffffffffffffffffffffffffffffffffffffffffff82141561203657612035612041565b5b600182019050919050565b7f4e487b7100000000000000000000000000000000000000000000000000000000600052601160045260246000fd5b7f4e487b7100000000000000000000000000000000000000000000000000000000600052602160045260246000fd5b7f4e487b7100000000000000000000000000000000000000000000000000000000600052602260045260246000fd5b6000601f19601f8301169050919050565b7f4f6e6c79207468652070726f6a6563742063726561746f722063616e2063616c60008201527f6c20746869732066756e6374696f6e0000000000000000000000000000000000602082015250565b7f5265656e7472616e6379206e6f74207065726d69747465640000000000000000600082015250565b7f4f6e6c792063726561746f722063616e2063616c6c20746869732066756e637460008201527f696f6e0000000000000000000000000000000000000000000000000000000000602082015250565b50565b7f33206f72206d6f7265206f662074686520746f70203520636f6e74726962757460008201527f6f7273206e65656420746f20616363657074207769746864726177616c000000602082015250565b7f55736572206e6f742070617274206f662074686520746f70203520636f6e747260008201527f696275746f727300000000000000000000000000000000000000000000000000602082015250565b6004811061225857612257612070565b5b50565b61226481611ede565b811461226f57600080fd5b50565b61227b81611f41565b811461228657600080fd5b5056fea2646970667358221220a0b1f4f7521d129b6bc1b09907f7f04e8188ef80b47f92d5959a187bf15a8dfb64736f6c63430008040033",
  "immutableReferences": {},
  "source": "//SPDX-License-Identifier: ISC\npragma solidity ^0.8.4;\n\nimport '@openzeppelin/contracts/utils/math/SafeMath.sol';\n\ncontract Project {\n    using SafeMath for uint256;\n\n    /********************************************************************************************/\n    /*                                       DATA VARIABLES                                     */\n    /********************************************************************************************/\n\n    address payable public creator;     // Address of the creator of the project\n    uint public goal;    //Amount in wei that the project must reach to be successful\n    uint public completedAt; //Time that project was successful\n    uint public raisedBy; //Time of required for project to expire\n    uint256 public currentBalance; //Amount currently raised\n    string public title;    //Title of the project\n    string public description;  //Description of the project\n    State public state = State.Fundraising; //State of the project (default state: Fundraising)\n\n    mapping(address => uint256) public contributions;   //Mapping to track the contributors of the project with \n                                                        //the amount contributed.\n\n    address[5] public admins;         //List of top 5 contributors\n    address[] public acceptedRequests; //List of admins who have accepted withdrawal\n    uint constant private M = 3;    //Constant number of admins required to accept withdrawal\n    uint256 private index = 0;\n    uint256 private threshold = type(uint256).max;\n    uint256 private counter = 1; \n\n\n    /********************************************************************************************/\n    /*                                       DATA STRUCTURES                                    */\n    /********************************************************************************************/\n\n    //Enum to show the state of the project\n    enum State {\n        Fundraising,\n        Successful,\n        Expired,\n        Funded\n    }\n\n\n    /********************************************************************************************/\n    /*                      FUNCTION MODIFIERS & CONSTRUCTOR                                    */\n    /********************************************************************************************/\n\n    /** \n        @dev Modifier to ensure that only the creator of the project calls that function.\n    */\n    modifier onlyCreator(){\n        require(msg.sender == creator, \"Only the project creator can call this function\");\n        _;\n    }\n\n    /** \n        @dev Modifier to check that the state of the project is at a specific state before calling the function.\n        @param _state State at which the project must be in\n    */\n    modifier inState(State _state){\n        require(state == _state);\n        _;\n    }\n\n    /** \n        @dev Modifier to check for reentrancy.\n    */\n    modifier entrancyGuard(){\n\t\n        counter= counter.add(1);\n        uint256 localCounter = counter;\n        _;\n        require(counter == localCounter, \"Reentrancy not permitted\");\n    }       \n\n    \n    constructor(\n        address projectCreator,\n        string memory projectTitle,\n        string memory projectDescription,\n        uint timeOfCompletion,\n        uint projectGoal\n    )  \n    {\n        creator = payable(projectCreator);\n        title = projectTitle;\n        description = projectDescription;\n        raisedBy = timeOfCompletion;\n        goal = projectGoal;\n    }\n\n\n    /********************************************************************************************/\n    /*                     EVENTS & CONTRACT FUNCTIONS                                          */\n    /********************************************************************************************/\n\n    // Event that will be emitted whenever funding will be received\n    event FundingReceived(address contributor, uint amount, uint currentTotal);\n\n    //Event that will be emitted when the creator of the project has withdrawn funds\n    event CreatorFunded(address recipient, uint amount);\n\n\n    /** \n        @dev Function to fund a certain project.\n        1. Check if the person sending funds is not the creator of the project\n        2. Increase currentBalance and the contribution of the address sending funds \n        3. If the currentBalance is greater than or equal to goal make appropriate state changes \n        and set completed time to current time.\n        4. if current time is greater than raisedBy(time set for fundraising to be over) changed state to expired\n        5. Next we check if the length of the admins(highest contributors list) is less than 5. \n        6. If so, we push the address of the sender else we calculate the least contributing member of admins\n           and replace it with the msg.sender.\n    */\n    function contribute() public inState(State.Fundraising) entrancyGuard payable {\n        require(msg.sender != creator);\n        \n        \n        contributions[msg.sender] = contributions[msg.sender] + msg.value;\n        currentBalance += msg.value;\n        \n        \n\n        if(currentBalance >= goal){\n            state = State.Successful;\n            completedAt = block.timestamp;\n        } else if (block.timestamp > raisedBy){\n            state = State.Expired;\n            completedAt = block.timestamp;\n        }\n\n        if(index < 5 && admins[index] == address(0)){\n            admins[index] = msg.sender;\n            index += 1;\n            if(msg.value < threshold){\n                threshold = msg.value;\n            }\n        } else {\n            if(msg.value > threshold){\n                for(uint i = 0; i < 5; i++){\n                    if(contributions[admins[i]] <= msg.value && contributions[admins[i]] == threshold){\n                        admins[i] = msg.sender;\n                        threshold = type(uint256).max;\n                    }\n                }\n                for(uint i = 0; i < 5; i++){\n                    uint value = contributions[admins[i]];\n                    if(value < threshold){\n                        threshold = value;\n                    }\n                }\n            }\n        }\n\n        emit FundingReceived(msg.sender, msg.value, currentBalance);\n    }\n\n\n    /** \n        @dev Function to send received funds to the creator of the project.\n        1. Basically stores the current balance in a temporary variable,\n        2. Changes current balance to zero. \n        3. Uses .call to send funds to creator (.call was recommended over .send and .transfer \n        see https://consensys.net/diligence/blog/2019/09/stop-using-soliditys-transfer-now).\n        4. Check if call was successful then emit event, if not, reset value of currentBalance\n\n    */\n    function withdraw() external inState(State.Successful) onlyCreator entrancyGuard payable returns (bool){\n        require(msg.sender == creator, \"Only creator can call this function\");\n        require(acceptedRequests.length >=  M, \"3 or more of the top 5 contributors need to accept withdrawal\");\n        uint256 totalRaised = currentBalance;\n        currentBalance = 0;\n        (bool success, ) = creator.call{value: totalRaised}(\"\");\n        if(success){\n            state = State.Funded;\n            emit CreatorFunded(creator, totalRaised);\n            return true;\n        } else {\n            currentBalance = totalRaised;\n            return false;\n        }\n       \n    }\n    /** \n    * @dev Function to retrieve donated amount when a project expires.\n    */\n    function getRefund() external inState(State.Expired) payable returns(bool){\n        require(contributions[msg.sender] > 0);\n\n        uint amountToRefund = contributions[msg.sender];\n        contributions[msg.sender] = 0; \n\n        (bool success, ) = msg.sender.call{value: msg.value}(\"\");\n        if (success) {\n            currentBalance = currentBalance.sub(amountToRefund);\n        } else {\n            contributions[msg.sender] = amountToRefund;\n        }\n        return success;\n    }\n\n    /** \n      *   @dev Function to get specific information about the project.\n    */\n    function getDetails() public view returns(\n        address payable projectStarter,     \n        string  memory projectTitle,   \n        string  memory projectDesc,\n        uint  deadline,\n        uint256  balance, \n        uint256  projectGoal,\n        State currentState,\n        uint256 currentIndex,\n        uint256 thresholdVal\n    ){\n        projectStarter = creator;\n        projectTitle = title;\n        projectDesc = description;\n        deadline = raisedBy;\n        balance = currentBalance;\n        projectGoal = goal;\n        currentState = state;\n        currentIndex = index;\n        thresholdVal = threshold;\n    }\n\n    /** \n      *   @dev Internal Function to check whether item is in a list.\n    */\n    function contains(address userAddress, address[5] memory list) internal pure returns(bool) {\n        for(uint i = 0; i < 5; i++){\n            if(userAddress == list[i]){\n                return true;\n            }\n        }\n        return false;\n    }\n\n    /** \n      *   @dev Function to approve withdrawal for the project from the top 5 contributors.\n    */\n    function approveWithdrawal() inState(State.Successful) external {\n        require(contains(msg.sender, admins), \"User not part of the top 5 contributors\");\n        acceptedRequests.push(msg.sender);\n    }\n\n    /*\n    * @dev Function to get list of highest contributors\n    */\n    function getAdmins() external view returns(address[5] memory){\n        return admins;\n    }\n\n\n    /*\n    * @dev Function to get list approved withdrawal requests\n    */\n    function getAcceptedRequests() external view returns(address[] memory){\n        return acceptedRequests;\n    }\n\n\n}",
  "sourcePath": "/Users/ybotwe/Desktop/Personal/Blockchain/Crowdfunding/contracts/Project.sol",
  "compiler": {
    "name": "solc",
    "version": "0.8.4+commit.c7e474f2.Emscripten.clang"
  },
  "schemaVersion": "3.4.4",
  "updatedAt": "2021-12-18T10:20:38.714Z",
  "devdoc": {
    "kind": "dev",
    "methods": {
      "approveWithdrawal()": {
        "details": "Function to approve withdrawal for the project from the top 5 contributors."
      },
      "contribute()": {
        "details": "Function to fund a certain project. 1. Check if the person sending funds is not the creator of the project 2. Increase currentBalance and the contribution of the address sending funds  3. If the currentBalance is greater than or equal to goal make appropriate state changes  and set completed time to current time. 4. if current time is greater than raisedBy(time set for fundraising to be over) changed state to expired 5. Next we check if the length of the admins(highest contributors list) is less than 5.  6. If so, we push the address of the sender else we calculate the least contributing member of admins and replace it with the msg.sender."
      },
      "getDetails()": {
        "details": "Function to get specific information about the project."
      },
      "getRefund()": {
        "details": "Function to retrieve donated amount when a project expires."
      },
      "withdraw()": {
        "details": "Function to send received funds to the creator of the project. 1. Basically stores the current balance in a temporary variable, 2. Changes current balance to zero.  3. Uses .call to send funds to creator (.call was recommended over .send and .transfer  see https://consensys.net/diligence/blog/2019/09/stop-using-soliditys-transfer-now). 4. Check if call was successful then emit event, if not, reset value of currentBalance"
      }
    },
    "version": 1
  },
  "userdoc": {
    "kind": "user",
    "methods": {},
    "version": 1
  }
}